{
    "_format": "hh-sol-artifact-1",
    "contractName": "Lottery",
    "sourceName": "contracts/Lottery.sol",
    "abi": [
        {
            "inputs": [
                {
                    "internalType": "uint256",
                    "name": "_ticketSupply",
                    "type": "uint256"
                },
                {
                    "internalType": "uint256",
                    "name": "_lotteryId",
                    "type": "uint256"
                },
                {
                    "internalType": "uint256",
                    "name": "_ticketPrice",
                    "type": "uint256"
                },
                {
                    "internalType": "address",
                    "name": "factoryOwner",
                    "type": "address"
                }
            ],
            "stateMutability": "nonpayable",
            "type": "constructor"
        },
        {
            "anonymous": false,
            "inputs": [
                {
                    "indexed": true,
                    "internalType": "uint256",
                    "name": "_lotteryId",
                    "type": "uint256"
                }
            ],
            "name": "AllocationExhausted",
            "type": "event"
        },
        {
            "anonymous": false,
            "inputs": [
                {
                    "indexed": true,
                    "internalType": "address",
                    "name": "recipientOfLotteryFunds",
                    "type": "address"
                }
            ],
            "name": "FundsDistributed",
            "type": "event"
        },
        {
            "anonymous": false,
            "inputs": [
                {
                    "indexed": false,
                    "internalType": "uint256",
                    "name": "amount",
                    "type": "uint256"
                },
                {
                    "indexed": true,
                    "internalType": "address",
                    "name": "buyer",
                    "type": "address"
                }
            ],
            "name": "TicketSale",
            "type": "event"
        },
        {
            "anonymous": false,
            "inputs": [
                {
                    "indexed": true,
                    "internalType": "address",
                    "name": "winnerAddress",
                    "type": "address"
                },
                {
                    "indexed": false,
                    "internalType": "uint256",
                    "name": "ticketNumber",
                    "type": "uint256"
                }
            ],
            "name": "WinnerDrawn",
            "type": "event"
        },
        {
            "inputs": [],
            "name": "allTicketsSold",
            "outputs": [
                {
                    "internalType": "bool",
                    "name": "",
                    "type": "bool"
                }
            ],
            "stateMutability": "view",
            "type": "function"
        },
        {
            "inputs": [
                {
                    "internalType": "address",
                    "name": "winnerAddr",
                    "type": "address"
                }
            ],
            "name": "allocateFunds",
            "outputs": [],
            "stateMutability": "payable",
            "type": "function"
        },
        {
            "inputs": [
                {
                    "internalType": "address",
                    "name": "",
                    "type": "address"
                }
            ],
            "name": "amountTicketsHeld",
            "outputs": [
                {
                    "internalType": "uint256",
                    "name": "",
                    "type": "uint256"
                }
            ],
            "stateMutability": "view",
            "type": "function"
        },
        {
            "inputs": [
                {
                    "internalType": "uint256",
                    "name": "amount",
                    "type": "uint256"
                }
            ],
            "name": "buyTicket",
            "outputs": [],
            "stateMutability": "payable",
            "type": "function"
        },
        {
            "inputs": [
                {
                    "internalType": "address",
                    "name": "winnerAddr",
                    "type": "address"
                },
                {
                    "internalType": "uint256",
                    "name": "ticketNum",
                    "type": "uint256"
                }
            ],
            "name": "callWinner",
            "outputs": [],
            "stateMutability": "nonpayable",
            "type": "function"
        },
        {
            "inputs": [
                {
                    "internalType": "address",
                    "name": "searchAddr",
                    "type": "address"
                }
            ],
            "name": "getAddressTicketAmount",
            "outputs": [
                {
                    "internalType": "uint256",
                    "name": "",
                    "type": "uint256"
                }
            ],
            "stateMutability": "view",
            "type": "function"
        },
        {
            "inputs": [],
            "name": "getContractETHBalance",
            "outputs": [
                {
                    "internalType": "uint256",
                    "name": "",
                    "type": "uint256"
                }
            ],
            "stateMutability": "view",
            "type": "function"
        },
        {
            "inputs": [],
            "name": "getContractTokenBalance",
            "outputs": [
                {
                    "internalType": "uint256",
                    "name": "",
                    "type": "uint256"
                }
            ],
            "stateMutability": "view",
            "type": "function"
        },
        {
            "inputs": [
                {
                    "internalType": "address",
                    "name": "searchAddr",
                    "type": "address"
                }
            ],
            "name": "getERC20Balance",
            "outputs": [
                {
                    "internalType": "uint256",
                    "name": "",
                    "type": "uint256"
                }
            ],
            "stateMutability": "view",
            "type": "function"
        },
        {
            "inputs": [],
            "name": "getLotteryId",
            "outputs": [
                {
                    "internalType": "uint256",
                    "name": "",
                    "type": "uint256"
                }
            ],
            "stateMutability": "view",
            "type": "function"
        },
        {
            "inputs": [],
            "name": "getOwnerAddress",
            "outputs": [
                {
                    "internalType": "address",
                    "name": "",
                    "type": "address"
                }
            ],
            "stateMutability": "view",
            "type": "function"
        },
        {
            "inputs": [],
            "name": "getRemainingTickets",
            "outputs": [
                {
                    "internalType": "uint256",
                    "name": "",
                    "type": "uint256"
                }
            ],
            "stateMutability": "view",
            "type": "function"
        },
        {
            "inputs": [],
            "name": "getTicketPrice",
            "outputs": [
                {
                    "internalType": "uint256",
                    "name": "",
                    "type": "uint256"
                }
            ],
            "stateMutability": "view",
            "type": "function"
        },
        {
            "inputs": [],
            "name": "getTicketSupply",
            "outputs": [
                {
                    "internalType": "uint256",
                    "name": "",
                    "type": "uint256"
                }
            ],
            "stateMutability": "view",
            "type": "function"
        },
        {
            "inputs": [],
            "name": "getTokensAddress",
            "outputs": [
                {
                    "internalType": "address",
                    "name": "",
                    "type": "address"
                }
            ],
            "stateMutability": "view",
            "type": "function"
        },
        {
            "inputs": [
                {
                    "internalType": "address",
                    "name": "searchAddr",
                    "type": "address"
                }
            ],
            "name": "isTicketHolder",
            "outputs": [
                {
                    "internalType": "bool",
                    "name": "",
                    "type": "bool"
                }
            ],
            "stateMutability": "view",
            "type": "function"
        },
        {
            "inputs": [],
            "name": "lotteryFactory",
            "outputs": [
                {
                    "internalType": "contract LotteryFactory",
                    "name": "",
                    "type": "address"
                }
            ],
            "stateMutability": "view",
            "type": "function"
        },
        {
            "inputs": [],
            "name": "lotteryId",
            "outputs": [
                {
                    "internalType": "uint256",
                    "name": "",
                    "type": "uint256"
                }
            ],
            "stateMutability": "view",
            "type": "function"
        },
        {
            "inputs": [],
            "name": "owner",
            "outputs": [
                {
                    "internalType": "address",
                    "name": "",
                    "type": "address"
                }
            ],
            "stateMutability": "view",
            "type": "function"
        },
        {
            "inputs": [
                {
                    "internalType": "uint256",
                    "name": "randomTicketNumber",
                    "type": "uint256"
                }
            ],
            "name": "pickWinner",
            "outputs": [
                {
                    "internalType": "address",
                    "name": "",
                    "type": "address"
                },
                {
                    "internalType": "uint256",
                    "name": "",
                    "type": "uint256"
                }
            ],
            "stateMutability": "view",
            "type": "function"
        },
        {
            "inputs": [
                {
                    "internalType": "uint256",
                    "name": "ticketNumber",
                    "type": "uint256"
                }
            ],
            "name": "returnTicketOwner",
            "outputs": [
                {
                    "internalType": "address",
                    "name": "",
                    "type": "address"
                }
            ],
            "stateMutability": "view",
            "type": "function"
        },
        {
            "inputs": [
                {
                    "internalType": "uint256",
                    "name": "",
                    "type": "uint256"
                }
            ],
            "name": "ticketHolders",
            "outputs": [
                {
                    "internalType": "address",
                    "name": "",
                    "type": "address"
                }
            ],
            "stateMutability": "view",
            "type": "function"
        },
        {
            "inputs": [],
            "name": "ticketPrice",
            "outputs": [
                {
                    "internalType": "uint256",
                    "name": "",
                    "type": "uint256"
                }
            ],
            "stateMutability": "view",
            "type": "function"
        },
        {
            "inputs": [],
            "name": "ticketSupply",
            "outputs": [
                {
                    "internalType": "uint256",
                    "name": "",
                    "type": "uint256"
                }
            ],
            "stateMutability": "view",
            "type": "function"
        },
        {
            "inputs": [],
            "name": "tickets",
            "outputs": [
                {
                    "internalType": "contract LotteryTicket",
                    "name": "",
                    "type": "address"
                }
            ],
            "stateMutability": "view",
            "type": "function"
        },
        {
            "inputs": [],
            "name": "ticketsSold",
            "outputs": [
                {
                    "internalType": "uint256",
                    "name": "",
                    "type": "uint256"
                }
            ],
            "stateMutability": "view",
            "type": "function"
        },
        {
            "inputs": [],
            "name": "tokensAddress",
            "outputs": [
                {
                    "internalType": "address",
                    "name": "",
                    "type": "address"
                }
            ],
            "stateMutability": "view",
            "type": "function"
        },
        {
            "inputs": [],
            "name": "winnerChosen",
            "outputs": [
                {
                    "internalType": "bool",
                    "name": "",
                    "type": "bool"
                }
            ],
            "stateMutability": "view",
            "type": "function"
        },
        {
            "stateMutability": "payable",
            "type": "receive"
        }
    ],
    "bytecode": "0x60a060405234801561001057600080fd5b50604051613ff9380380613ff98339818101604052810190610032919061028b565b60008411610075576040517f08c379a000000000000000000000000000000000000000000000000000000000815260040161006c90610375565b60405180910390fd5b826000819055508073ffffffffffffffffffffffffffffffffffffffff1660808173ffffffffffffffffffffffffffffffffffffffff1681525050836004819055508160088190555083306000546040516100cf906101e5565b6100db939291906103b3565b604051809103906000f0801580156100f7573d6000803e3d6000fd5b50600660006101000a81548173ffffffffffffffffffffffffffffffffffffffff021916908373ffffffffffffffffffffffffffffffffffffffff16021790555033600760006101000a81548173ffffffffffffffffffffffffffffffffffffffff021916908373ffffffffffffffffffffffffffffffffffffffff160217905550600660009054906101000a900473ffffffffffffffffffffffffffffffffffffffff16600260006101000a81548173ffffffffffffffffffffffffffffffffffffffff021916908373ffffffffffffffffffffffffffffffffffffffff160217905550505050506103ea565b611ca78061235283390190565b600080fd5b6000819050919050565b61020a816101f7565b811461021557600080fd5b50565b60008151905061022781610201565b92915050565b600073ffffffffffffffffffffffffffffffffffffffff82169050919050565b60006102588261022d565b9050919050565b6102688161024d565b811461027357600080fd5b50565b6000815190506102858161025f565b92915050565b600080600080608085870312156102a5576102a46101f2565b5b60006102b387828801610218565b94505060206102c487828801610218565b93505060406102d587828801610218565b92505060606102e687828801610276565b91505092959194509250565b600082825260208201905092915050565b7f5469636b657420737570706c79206d757374206265206772656174657220746860008201527f616e207a65726f00000000000000000000000000000000000000000000000000602082015250565b600061035f6027836102f2565b915061036a82610303565b604082019050919050565b6000602082019050818103600083015261038e81610352565b9050919050565b61039e816101f7565b82525050565b6103ad8161024d565b82525050565b60006060820190506103c86000830186610395565b6103d560208301856103a4565b6103e26040830184610395565b949350505050565b608051611f2a6104286000396000818161070401528181610c9801528181610d9b015281816110b601528181611253015261131f0152611f2a6000f3fe6080604052600436106101bb5760003560e01c806387bb7ae0116100ec578063b437ae831161008a578063bdc15df611610064578063bdc15df61461062a578063de8f8e6a14610646578063e580f47b14610671578063f737d21d1461069c576101c2565b8063b437ae8314610587578063b588d225146105b0578063bc608216146105ed576101c2565b80638e36f586116100c65780638e36f586146104b75780638f15024f146104f4578063900aafaf1461051f5780639c067c321461054a576101c2565b806387bb7ae0146104365780638c89a0ad146104615780638da5cb5b1461048c576101c2565b80633d8738721161015957806367dd74ca1161013357806367dd74ca146103875780636b6d71ea146103a357806370cc89ad146103e057806381ecbea11461040b576101c2565b80633d873872146102f45780635b366722146103315780635d83c2b81461035c576101c2565b80632185852111610195578063218585211461024857806324c9036d14610273578063317d94531461029e57806336298ff7146102c9576101c2565b80630986e733146101c75780630c4f65bd146101f25780631209b1f61461021d576101c2565b366101c257005b600080fd5b3480156101d357600080fd5b506101dc6106da565b6040516101e99190611527565b60405180910390f35b3480156101fe57600080fd5b50610207610700565b6040516102149190611527565b60405180910390f35b34801561022957600080fd5b50610232610728565b60405161023f919061155b565b60405180910390f35b34801561025457600080fd5b5061025d61072e565b60405161026a91906115d5565b60405180910390f35b34801561027f57600080fd5b50610288610754565b6040516102959190611611565b60405180910390f35b3480156102aa57600080fd5b506102b361077a565b6040516102c0919061155b565b60405180910390f35b3480156102d557600080fd5b506102de61081d565b6040516102eb9190611527565b60405180910390f35b34801561030057600080fd5b5061031b6004803603810190610316919061165d565b610847565b604051610328919061155b565b60405180910390f35b34801561033d57600080fd5b5061034661085f565b60405161035391906116a5565b60405180910390f35b34801561036857600080fd5b5061037161086d565b60405161037e919061155b565b60405180910390f35b6103a1600480360381019061039c91906116ec565b610873565b005b3480156103af57600080fd5b506103ca60048036038101906103c5919061165d565b610bbf565b6040516103d791906116a5565b60405180910390f35b3480156103ec57600080fd5b506103f5610c63565b604051610402919061155b565b60405180910390f35b34801561041757600080fd5b50610420610c7a565b60405161042d919061155b565b60405180910390f35b34801561044257600080fd5b5061044b610c84565b604051610458919061155b565b60405180910390f35b34801561046d57600080fd5b50610476610c8e565b604051610483919061155b565b60405180910390f35b34801561049857600080fd5b506104a1610c96565b6040516104ae9190611527565b60405180910390f35b3480156104c357600080fd5b506104de60048036038101906104d9919061165d565b610cba565b6040516104eb919061155b565b60405180910390f35b34801561050057600080fd5b50610509610d4b565b604051610516919061155b565b60405180910390f35b34801561052b57600080fd5b50610534610d51565b604051610541919061155b565b60405180910390f35b34801561055657600080fd5b50610571600480360381019061056c91906116ec565b610d5a565b60405161057e9190611527565b60405180910390f35b34801561059357600080fd5b506105ae60048036038101906105a99190611719565b610d99565b005b3480156105bc57600080fd5b506105d760048036038101906105d2919061165d565b610f6a565b6040516105e4919061155b565b60405180910390f35b3480156105f957600080fd5b50610614600480360381019061060f91906116ec565b61100f565b6040516106219190611527565b60405180910390f35b610644600480360381019061063f919061165d565b6110b4565b005b34801561065257600080fd5b5061065b611301565b60405161066891906116a5565b60405180910390f35b34801561067d57600080fd5b50610686611314565b604051610693919061155b565b60405180910390f35b3480156106a857600080fd5b506106c360048036038101906106be91906116ec565b61131a565b6040516106d1929190611759565b60405180910390f35b600260009054906101000a900473ffffffffffffffffffffffffffffffffffffffff1681565b60007f0000000000000000000000000000000000000000000000000000000000000000905090565b60085481565b600660009054906101000a900473ffffffffffffffffffffffffffffffffffffffff1681565b600760009054906101000a900473ffffffffffffffffffffffffffffffffffffffff1681565b6000600660009054906101000a900473ffffffffffffffffffffffffffffffffffffffff1673ffffffffffffffffffffffffffffffffffffffff166370a08231306040518263ffffffff1660e01b81526004016107d79190611527565b602060405180830381865afa1580156107f4573d6000803e3d6000fd5b505050506040513d601f19601f820116820180604052508101906108189190611797565b905090565b6000600260009054906101000a900473ffffffffffffffffffffffffffffffffffffffff16905090565b60036020528060005260406000206000915090505481565b600060045460055414905090565b60045481565b600454600554106108b9576040517f08c379a00000000000000000000000000000000000000000000000000000000081526004016108b090611821565b60405180910390fd5b6005546004546108c99190611870565b81111561090b576040517f08c379a000000000000000000000000000000000000000000000000000000000815260040161090290611916565b60405180910390fd5b806008546109199190611936565b341461095a576040517f08c379a0000000000000000000000000000000000000000000000000000000008152600401610951906119c4565b60405180910390fd5b600854346109689190611a13565b81146109a9576040517f08c379a00000000000000000000000000000000000000000000000000000000081526004016109a090611a90565b60405180910390fd5b80600560008282546109bb9190611ab0565b9250508190555080600360003373ffffffffffffffffffffffffffffffffffffffff1673ffffffffffffffffffffffffffffffffffffffff1681526020019081526020016000206000828254610a119190611ab0565b9250508190555060001515610a2533610bbf565b151503610a90576001339080600181540180825580915050600190039060005260206000200160009091909190916101000a81548173ffffffffffffffffffffffffffffffffffffffff021916908373ffffffffffffffffffffffffffffffffffffffff1602179055505b600660009054906101000a900473ffffffffffffffffffffffffffffffffffffffff1673ffffffffffffffffffffffffffffffffffffffff1663a9059cbb33836040518363ffffffff1660e01b8152600401610aed929190611759565b6020604051808303816000875af1158015610b0c573d6000803e3d6000fd5b505050506040513d601f19601f82011682018060405250810190610b309190611b10565b503373ffffffffffffffffffffffffffffffffffffffff167ff77a8cbe2a16f740e6c57f4eb87d71011b039080451dab22c7c51c75f03fa10b82604051610b77919061155b565b60405180910390a2610b8761085f565b15610bbc576000547f42ea1635f50563950ea929538dd659cb55df39e05d8eea6288a68f2e9cd9f5f460405160405180910390a25b50565b6000806000905060005b600180549050811015610c595760018181548110610bea57610be9611b3d565b5b9060005260206000200160009054906101000a900473ffffffffffffffffffffffffffffffffffffffff1673ffffffffffffffffffffffffffffffffffffffff168473ffffffffffffffffffffffffffffffffffffffff1603610c4c57600191505b8080600101915050610bc9565b5080915050919050565b6000600554600454610c759190611870565b905090565b6000600454905090565b6000600854905090565b600047905090565b7f000000000000000000000000000000000000000000000000000000000000000081565b6000610cc582610bbf565b610d04576040517f08c379a0000000000000000000000000000000000000000000000000000000008152600401610cfb90611bb8565b60405180910390fd5b600360008373ffffffffffffffffffffffffffffffffffffffff1673ffffffffffffffffffffffffffffffffffffffff168152602001908152602001600020549050919050565b60055481565b60008054905090565b60018181548110610d6a57600080fd5b906000526020600020016000915054906101000a900473ffffffffffffffffffffffffffffffffffffffff1681565b7f000000000000000000000000000000000000000000000000000000000000000073ffffffffffffffffffffffffffffffffffffffff163373ffffffffffffffffffffffffffffffffffffffff1614610e27576040517f08c379a0000000000000000000000000000000000000000000000000000000008152600401610e1e90611c4a565b60405180910390fd5b610e2f61085f565b610e6e576040517f08c379a0000000000000000000000000000000000000000000000000000000008152600401610e6590611cdc565b60405180910390fd5b6001600960006101000a81548160ff0219169083151502179055508173ffffffffffffffffffffffffffffffffffffffff167fc7a4ac1b113d8834e9a4b3a5968fadc610a4822ede2b7418dca2aa5f20f918de82604051610ecf919061155b565b60405180910390a2600760009054906101000a900473ffffffffffffffffffffffffffffffffffffffff1673ffffffffffffffffffffffffffffffffffffffff16633f5871b96000546040518263ffffffff1660e01b8152600401610f34919061155b565b600060405180830381600087803b158015610f4e57600080fd5b505af1158015610f62573d6000803e3d6000fd5b505050505050565b6000600660009054906101000a900473ffffffffffffffffffffffffffffffffffffffff1673ffffffffffffffffffffffffffffffffffffffff166370a08231836040518263ffffffff1660e01b8152600401610fc79190611527565b602060405180830381865afa158015610fe4573d6000803e3d6000fd5b505050506040513d601f19601f820116820180604052508101906110089190611797565b9050919050565b6000600660009054906101000a900473ffffffffffffffffffffffffffffffffffffffff1673ffffffffffffffffffffffffffffffffffffffff1663bc608216836040518263ffffffff1660e01b815260040161106c919061155b565b602060405180830381865afa158015611089573d6000803e3d6000fd5b505050506040513d601f19601f820116820180604052508101906110ad9190611d11565b9050919050565b7f000000000000000000000000000000000000000000000000000000000000000073ffffffffffffffffffffffffffffffffffffffff163373ffffffffffffffffffffffffffffffffffffffff1614611142576040517f08c379a000000000000000000000000000000000000000000000000000000000815260040161113990611c4a565b60405180910390fd5b61114a61085f565b611189576040517f08c379a000000000000000000000000000000000000000000000000000000000815260040161118090611cdc565b60405180910390fd5b600960009054906101000a900460ff166111d8576040517f08c379a00000000000000000000000000000000000000000000000000000000081526004016111cf90611db0565b60405180910390fd5b600047905060006064605f836111ee9190611936565b6111f89190611a13565b9050600081836112089190611870565b90508373ffffffffffffffffffffffffffffffffffffffff166108fc839081150290604051600060405180830381858888f19350505050158015611250573d6000803e3d6000fd5b507f000000000000000000000000000000000000000000000000000000000000000073ffffffffffffffffffffffffffffffffffffffff166108fc829081150290604051600060405180830381858888f193505050501580156112b7573d6000803e3d6000fd5b508373ffffffffffffffffffffffffffffffffffffffff167f50c2f8461026be8b2682f55d1503f94c8f2980c1ad5a635a7c4fadb42f733ca260405160405180910390a250505050565b600960009054906101000a900460ff1681565b60005481565b6000807f000000000000000000000000000000000000000000000000000000000000000073ffffffffffffffffffffffffffffffffffffffff163373ffffffffffffffffffffffffffffffffffffffff16146113ab576040517f08c379a00000000000000000000000000000000000000000000000000000000081526004016113a290611c4a565b60405180910390fd5b6113b361085f565b6113f2576040517f08c379a00000000000000000000000000000000000000000000000000000000081526004016113e990611e42565b60405180910390fd5b6000600660009054906101000a900473ffffffffffffffffffffffffffffffffffffffff1673ffffffffffffffffffffffffffffffffffffffff1663bc608216856040518263ffffffff1660e01b815260040161144f919061155b565b602060405180830381865afa15801561146c573d6000803e3d6000fd5b505050506040513d601f19601f820116820180604052508101906114909190611d11565b905061149b81610bbf565b6114da576040517f08c379a00000000000000000000000000000000000000000000000000000000081526004016114d190611ed4565b60405180910390fd5b80849250925050915091565b600073ffffffffffffffffffffffffffffffffffffffff82169050919050565b6000611511826114e6565b9050919050565b61152181611506565b82525050565b600060208201905061153c6000830184611518565b92915050565b6000819050919050565b61155581611542565b82525050565b6000602082019050611570600083018461154c565b92915050565b6000819050919050565b600061159b611596611591846114e6565b611576565b6114e6565b9050919050565b60006115ad82611580565b9050919050565b60006115bf826115a2565b9050919050565b6115cf816115b4565b82525050565b60006020820190506115ea60008301846115c6565b92915050565b60006115fb826115a2565b9050919050565b61160b816115f0565b82525050565b60006020820190506116266000830184611602565b92915050565b600080fd5b61163a81611506565b811461164557600080fd5b50565b60008135905061165781611631565b92915050565b6000602082840312156116735761167261162c565b5b600061168184828501611648565b91505092915050565b60008115159050919050565b61169f8161168a565b82525050565b60006020820190506116ba6000830184611696565b92915050565b6116c981611542565b81146116d457600080fd5b50565b6000813590506116e6816116c0565b92915050565b6000602082840312156117025761170161162c565b5b6000611710848285016116d7565b91505092915050565b600080604083850312156117305761172f61162c565b5b600061173e85828601611648565b925050602061174f858286016116d7565b9150509250929050565b600060408201905061176e6000830185611518565b61177b602083018461154c565b9392505050565b600081519050611791816116c0565b92915050565b6000602082840312156117ad576117ac61162c565b5b60006117bb84828501611782565b91505092915050565b600082825260208201905092915050565b7f4e6f207469636b6574732072656d61696e696e67000000000000000000000000600082015250565b600061180b6014836117c4565b9150611816826117d5565b602082019050919050565b6000602082019050818103600083015261183a816117fe565b9050919050565b7f4e487b7100000000000000000000000000000000000000000000000000000000600052601160045260246000fd5b600061187b82611542565b915061188683611542565b925082820390508181111561189e5761189d611841565b5b92915050565b7f4e6f7420656e6f756768207469636b65747320746f2066756c66696c6c20707560008201527f7263686173650000000000000000000000000000000000000000000000000000602082015250565b60006119006026836117c4565b915061190b826118a4565b604082019050919050565b6000602082019050818103600083015261192f816118f3565b9050919050565b600061194182611542565b915061194c83611542565b925082820261195a81611542565b9150828204841483151761197157611970611841565b5b5092915050565b7f496e636f7272656374207061796d656e7420616d6f756e740000000000000000600082015250565b60006119ae6018836117c4565b91506119b982611978565b602082019050919050565b600060208201905081810360008301526119dd816119a1565b9050919050565b7f4e487b7100000000000000000000000000000000000000000000000000000000600052601260045260246000fd5b6000611a1e82611542565b9150611a2983611542565b925082611a3957611a386119e4565b5b828204905092915050565b7f4d7573742070757263686173652077686f6c65207469636b6574730000000000600082015250565b6000611a7a601b836117c4565b9150611a8582611a44565b602082019050919050565b60006020820190508181036000830152611aa981611a6d565b9050919050565b6000611abb82611542565b9150611ac683611542565b9250828201905080821115611ade57611add611841565b5b92915050565b611aed8161168a565b8114611af857600080fd5b50565b600081519050611b0a81611ae4565b92915050565b600060208284031215611b2657611b2561162c565b5b6000611b3484828501611afb565b91505092915050565b7f4e487b7100000000000000000000000000000000000000000000000000000000600052603260045260246000fd5b7f4164647265737320686173206e6f7420707572636861736564207469636b6574600082015250565b6000611ba26020836117c4565b9150611bad82611b6c565b602082019050919050565b60006020820190508181036000830152611bd181611b95565b9050919050565b7f4f6e6c7920636f6e7472616374206f776e6572206d61792063616c6c2074686960008201527f732066756e6374696f6e00000000000000000000000000000000000000000000602082015250565b6000611c34602a836117c4565b9150611c3f82611bd8565b604082019050919050565b60006020820190508181036000830152611c6381611c27565b9050919050565b7f43616e6e6f742063616c6c207768696c65207469636b657473206f757473746160008201527f6e64696e67000000000000000000000000000000000000000000000000000000602082015250565b6000611cc66025836117c4565b9150611cd182611c6a565b604082019050919050565b60006020820190508181036000830152611cf581611cb9565b9050919050565b600081519050611d0b81611631565b92915050565b600060208284031215611d2757611d2661162c565b5b6000611d3584828501611cfc565b91505092915050565b7f43616e6e6f7420616c6c6f63617465206265666f72652077696e6e657220697360008201527f207069636b656400000000000000000000000000000000000000000000000000602082015250565b6000611d9a6027836117c4565b9150611da582611d3e565b604082019050919050565b60006020820190508181036000830152611dc981611d8d565b9050919050565b7f43616e6e6f742063616c6c2c207469636b657473207374696c6c2072656d616960008201527f6e696e6700000000000000000000000000000000000000000000000000000000602082015250565b6000611e2c6024836117c4565b9150611e3782611dd0565b604082019050919050565b60006020820190508181036000830152611e5b81611e1f565b9050919050565b7f57696e6e65722061646472657373206d757374206265207469636b657420686f60008201527f6c64657200000000000000000000000000000000000000000000000000000000602082015250565b6000611ebe6024836117c4565b9150611ec982611e62565b604082019050919050565b60006020820190508181036000830152611eed81611eb1565b905091905056fea2646970667358221220de8aed945191abf0fd741713dea48b060f328a92b154486067a35aaa9bddc71664736f6c634300081c0033608060405234801561001057600080fd5b50604051611ca7380380611ca78339818101604052810190610032919061048f565b6040518060400160405280600d81526020017f4c6f74746572795469636b6574000000000000000000000000000000000000008152506040518060400160405280600281526020017f4c5400000000000000000000000000000000000000000000000000000000000081525081600390816100ad9190610728565b5080600490816100bd9190610728565b5050508060058190555081600660006101000a81548173ffffffffffffffffffffffffffffffffffffffff021916908373ffffffffffffffffffffffffffffffffffffffff16021790555082600981905550610141600660009054906101000a900473ffffffffffffffffffffffffffffffffffffffff168461014960201b60201c565b5050506108e8565b600073ffffffffffffffffffffffffffffffffffffffff168273ffffffffffffffffffffffffffffffffffffffff16036101bb5760006040517fec442f050000000000000000000000000000000000000000000000000000000081526004016101b29190610809565b60405180910390fd5b6101cd600083836101d160201b60201c565b5050565b600073ffffffffffffffffffffffffffffffffffffffff168373ffffffffffffffffffffffffffffffffffffffff16036102235780600260008282546102179190610853565b925050819055506102f6565b60008060008573ffffffffffffffffffffffffffffffffffffffff1673ffffffffffffffffffffffffffffffffffffffff168152602001908152602001600020549050818110156102af578381836040517fe450d38c0000000000000000000000000000000000000000000000000000000081526004016102a693929190610896565b60405180910390fd5b8181036000808673ffffffffffffffffffffffffffffffffffffffff1673ffffffffffffffffffffffffffffffffffffffff16815260200190815260200160002081905550505b600073ffffffffffffffffffffffffffffffffffffffff168273ffffffffffffffffffffffffffffffffffffffff160361033f578060026000828254039250508190555061038c565b806000808473ffffffffffffffffffffffffffffffffffffffff1673ffffffffffffffffffffffffffffffffffffffff168152602001908152602001600020600082825401925050819055505b8173ffffffffffffffffffffffffffffffffffffffff168373ffffffffffffffffffffffffffffffffffffffff167fddf252ad1be2c89b69c2b068fc378daa952ba7f163c4a11628f55a4df523b3ef836040516103e991906108cd565b60405180910390a3505050565b600080fd5b6000819050919050565b61040e816103fb565b811461041957600080fd5b50565b60008151905061042b81610405565b92915050565b600073ffffffffffffffffffffffffffffffffffffffff82169050919050565b600061045c82610431565b9050919050565b61046c81610451565b811461047757600080fd5b50565b60008151905061048981610463565b92915050565b6000806000606084860312156104a8576104a76103f6565b5b60006104b68682870161041c565b93505060206104c78682870161047a565b92505060406104d88682870161041c565b9150509250925092565b600081519050919050565b7f4e487b7100000000000000000000000000000000000000000000000000000000600052604160045260246000fd5b7f4e487b7100000000000000000000000000000000000000000000000000000000600052602260045260246000fd5b6000600282049050600182168061056357607f821691505b6020821081036105765761057561051c565b5b50919050565b60008190508160005260206000209050919050565b60006020601f8301049050919050565b600082821b905092915050565b6000600883026105de7fffffffffffffffffffffffffffffffffffffffffffffffffffffffffffffffff826105a1565b6105e886836105a1565b95508019841693508086168417925050509392505050565b6000819050919050565b600061062561062061061b846103fb565b610600565b6103fb565b9050919050565b6000819050919050565b61063f8361060a565b61065361064b8261062c565b8484546105ae565b825550505050565b600090565b61066861065b565b610673818484610636565b505050565b5b818110156106975761068c600082610660565b600181019050610679565b5050565b601f8211156106dc576106ad8161057c565b6106b684610591565b810160208510156106c5578190505b6106d96106d185610591565b830182610678565b50505b505050565b600082821c905092915050565b60006106ff600019846008026106e1565b1980831691505092915050565b600061071883836106ee565b9150826002028217905092915050565b610731826104e2565b67ffffffffffffffff81111561074a576107496104ed565b5b610754825461054b565b61075f82828561069b565b600060209050601f8311600181146107925760008415610780578287015190505b61078a858261070c565b8655506107f2565b601f1984166107a08661057c565b60005b828110156107c8578489015182556001820191506020850194506020810190506107a3565b868310156107e557848901516107e1601f8916826106ee565b8355505b6001600288020188555050505b505050505050565b61080381610451565b82525050565b600060208201905061081e60008301846107fa565b92915050565b7f4e487b7100000000000000000000000000000000000000000000000000000000600052601160045260246000fd5b600061085e826103fb565b9150610869836103fb565b925082820190508082111561088157610880610824565b5b92915050565b610890816103fb565b82525050565b60006060820190506108ab60008301866107fa565b6108b86020830185610887565b6108c56040830184610887565b949350505050565b60006020820190506108e26000830184610887565b92915050565b6113b0806108f76000396000f3fe608060405234801561001057600080fd5b50600436106100f55760003560e01c806360b9a6c211610097578063bc60821611610066578063bc6082161461028c578063dd62ed3e146102bc578063e580f47b146102ec578063eb2dbcf61461030a576100f5565b806360b9a6c2146101f057806370a082311461020e57806395d89b411461023e578063a9059cbb1461025c576100f5565b806318160ddd116100d357806318160ddd1461016657806323b872dd14610184578063313ce567146101b45780633beedf6d146101d2576100f5565b8063047fc9aa146100fa57806306fdde0314610118578063095ea7b314610136575b600080fd5b61010261033a565b60405161010f9190610df6565b60405180910390f35b610120610340565b60405161012d9190610ea1565b60405180910390f35b610150600480360381019061014b9190610f52565b6103d2565b60405161015d9190610fad565b60405180910390f35b61016e6103f5565b60405161017b9190610df6565b60405180910390f35b61019e60048036038101906101999190610fc8565b6103ff565b6040516101ab9190610fad565b60405180910390f35b6101bc61042e565b6040516101c99190611037565b60405180910390f35b6101da610437565b6040516101e79190611061565b60405180910390f35b6101f861045d565b6040516102059190610df6565b60405180910390f35b6102286004803603810190610223919061107c565b610463565b6040516102359190610df6565b60405180910390f35b6102466104ab565b6040516102539190610ea1565b60405180910390f35b61027660048036038101906102719190610f52565b61053d565b6040516102839190610fad565b60405180910390f35b6102a660048036038101906102a191906110a9565b6106b3565b6040516102b39190611061565b60405180910390f35b6102d660048036038101906102d191906110d6565b6106f0565b6040516102e39190610df6565b60405180910390f35b6102f4610777565b6040516103019190610df6565b60405180910390f35b610324600480360381019061031f91906110a9565b61077d565b6040516103319190611061565b60405180910390f35b60095481565b60606003805461034f90611145565b80601f016020809104026020016040519081016040528092919081815260200182805461037b90611145565b80156103c85780601f1061039d576101008083540402835291602001916103c8565b820191906000526020600020905b8154815290600101906020018083116103ab57829003601f168201915b5050505050905090565b6000806103dd6107b0565b90506103ea8185856107b8565b600191505092915050565b6000600254905090565b60008061040a6107b0565b90506104178582856107ca565b61042285858561085f565b60019150509392505050565b60006012905090565b600660009054906101000a900473ffffffffffffffffffffffffffffffffffffffff1681565b60085481565b60008060008373ffffffffffffffffffffffffffffffffffffffff1673ffffffffffffffffffffffffffffffffffffffff168152602001908152602001600020549050919050565b6060600480546104ba90611145565b80601f01602080910402602001604051908101604052809291908181526020018280546104e690611145565b80156105335780601f1061050857610100808354040283529160200191610533565b820191906000526020600020905b81548152906001019060200180831161051657829003601f168201915b5050505050905090565b6000600660009054906101000a900473ffffffffffffffffffffffffffffffffffffffff1673ffffffffffffffffffffffffffffffffffffffff163373ffffffffffffffffffffffffffffffffffffffff16146105cf576040517f08c379a00000000000000000000000000000000000000000000000000000000081526004016105c6906111e8565b60405180910390fd5b6000821180156105e757506105e333610463565b8211155b610626576040517f08c379a000000000000000000000000000000000000000000000000000000000815260040161061d90611254565b60405180910390fd5b6106308383610953565b5060005b828110156106a8576000610646610976565b9050846007600083815260200190815260200160002060006101000a81548173ffffffffffffffffffffffffffffffffffffffff021916908373ffffffffffffffffffffffffffffffffffffffff160217905550508080600101915050610634565b506001905092915050565b60006007600083815260200190815260200160002060009054906101000a900473ffffffffffffffffffffffffffffffffffffffff169050919050565b6000600160008473ffffffffffffffffffffffffffffffffffffffff1673ffffffffffffffffffffffffffffffffffffffff16815260200190815260200160002060008373ffffffffffffffffffffffffffffffffffffffff1673ffffffffffffffffffffffffffffffffffffffff16815260200190815260200160002054905092915050565b60055481565b60076020528060005260406000206000915054906101000a900473ffffffffffffffffffffffffffffffffffffffff1681565b600033905090565b6107c583838360016109e1565b505050565b60006107d684846106f0565b90507fffffffffffffffffffffffffffffffffffffffffffffffffffffffffffffffff8110156108595781811015610849578281836040517ffb8f41b200000000000000000000000000000000000000000000000000000000815260040161084093929190611274565b60405180910390fd5b610858848484840360006109e1565b5b50505050565b600073ffffffffffffffffffffffffffffffffffffffff168373ffffffffffffffffffffffffffffffffffffffff16036108d15760006040517f96c6fd1e0000000000000000000000000000000000000000000000000000000081526004016108c89190611061565b60405180910390fd5b600073ffffffffffffffffffffffffffffffffffffffff168273ffffffffffffffffffffffffffffffffffffffff16036109435760006040517fec442f0500000000000000000000000000000000000000000000000000000000815260040161093a9190611061565b60405180910390fd5b61094e838383610bb8565b505050565b60008061095e6107b0565b905061096b81858561085f565b600191505092915050565b600060095460085411156109bf576040517f08c379a00000000000000000000000000000000000000000000000000000000081526004016109b6906112f7565b60405180910390fd5b6001600860008282546109d29190611346565b92505081905550600854905090565b600073ffffffffffffffffffffffffffffffffffffffff168473ffffffffffffffffffffffffffffffffffffffff1603610a535760006040517fe602df05000000000000000000000000000000000000000000000000000000008152600401610a4a9190611061565b60405180910390fd5b600073ffffffffffffffffffffffffffffffffffffffff168373ffffffffffffffffffffffffffffffffffffffff1603610ac55760006040517f94280d62000000000000000000000000000000000000000000000000000000008152600401610abc9190611061565b60405180910390fd5b81600160008673ffffffffffffffffffffffffffffffffffffffff1673ffffffffffffffffffffffffffffffffffffffff16815260200190815260200160002060008573ffffffffffffffffffffffffffffffffffffffff1673ffffffffffffffffffffffffffffffffffffffff168152602001908152602001600020819055508015610bb2578273ffffffffffffffffffffffffffffffffffffffff168473ffffffffffffffffffffffffffffffffffffffff167f8c5be1e5ebec7d5bd14f71427d1e84f3dd0314c0f7b2291e5b200ac8c7c3b92584604051610ba99190610df6565b60405180910390a35b50505050565b600073ffffffffffffffffffffffffffffffffffffffff168373ffffffffffffffffffffffffffffffffffffffff1603610c0a578060026000828254610bfe9190611346565b92505081905550610cdd565b60008060008573ffffffffffffffffffffffffffffffffffffffff1673ffffffffffffffffffffffffffffffffffffffff16815260200190815260200160002054905081811015610c96578381836040517fe450d38c000000000000000000000000000000000000000000000000000000008152600401610c8d93929190611274565b60405180910390fd5b8181036000808673ffffffffffffffffffffffffffffffffffffffff1673ffffffffffffffffffffffffffffffffffffffff16815260200190815260200160002081905550505b600073ffffffffffffffffffffffffffffffffffffffff168273ffffffffffffffffffffffffffffffffffffffff1603610d265780600260008282540392505081905550610d73565b806000808473ffffffffffffffffffffffffffffffffffffffff1673ffffffffffffffffffffffffffffffffffffffff168152602001908152602001600020600082825401925050819055505b8173ffffffffffffffffffffffffffffffffffffffff168373ffffffffffffffffffffffffffffffffffffffff167fddf252ad1be2c89b69c2b068fc378daa952ba7f163c4a11628f55a4df523b3ef83604051610dd09190610df6565b60405180910390a3505050565b6000819050919050565b610df081610ddd565b82525050565b6000602082019050610e0b6000830184610de7565b92915050565b600081519050919050565b600082825260208201905092915050565b60005b83811015610e4b578082015181840152602081019050610e30565b60008484015250505050565b6000601f19601f8301169050919050565b6000610e7382610e11565b610e7d8185610e1c565b9350610e8d818560208601610e2d565b610e9681610e57565b840191505092915050565b60006020820190508181036000830152610ebb8184610e68565b905092915050565b600080fd5b600073ffffffffffffffffffffffffffffffffffffffff82169050919050565b6000610ef382610ec8565b9050919050565b610f0381610ee8565b8114610f0e57600080fd5b50565b600081359050610f2081610efa565b92915050565b610f2f81610ddd565b8114610f3a57600080fd5b50565b600081359050610f4c81610f26565b92915050565b60008060408385031215610f6957610f68610ec3565b5b6000610f7785828601610f11565b9250506020610f8885828601610f3d565b9150509250929050565b60008115159050919050565b610fa781610f92565b82525050565b6000602082019050610fc26000830184610f9e565b92915050565b600080600060608486031215610fe157610fe0610ec3565b5b6000610fef86828701610f11565b935050602061100086828701610f11565b925050604061101186828701610f3d565b9150509250925092565b600060ff82169050919050565b6110318161101b565b82525050565b600060208201905061104c6000830184611028565b92915050565b61105b81610ee8565b82525050565b60006020820190506110766000830184611052565b92915050565b60006020828403121561109257611091610ec3565b5b60006110a084828501610f11565b91505092915050565b6000602082840312156110bf576110be610ec3565b5b60006110cd84828501610f3d565b91505092915050565b600080604083850312156110ed576110ec610ec3565b5b60006110fb85828601610f11565b925050602061110c85828601610f11565b9150509250929050565b7f4e487b7100000000000000000000000000000000000000000000000000000000600052602260045260246000fd5b6000600282049050600182168061115d57607f821691505b6020821081036111705761116f611116565b5b50919050565b7f4f6e6c7920746865206173736f636961746564206c6f74746572792063616e2060008201527f63616c6c20746869732066756e6374696f6e0000000000000000000000000000602082015250565b60006111d2603283610e1c565b91506111dd82611176565b604082019050919050565b60006020820190508181036000830152611201816111c5565b9050919050565b7f496e76616c6964207472616e7366657220616d6f756e74000000000000000000600082015250565b600061123e601783610e1c565b915061124982611208565b602082019050919050565b6000602082019050818103600083015261126d81611231565b9050919050565b60006060820190506112896000830186611052565b6112966020830185610de7565b6112a36040830184610de7565b949350505050565b7f43616e6e6f742065786365656420737570706c79206f66207469636b65747300600082015250565b60006112e1601f83610e1c565b91506112ec826112ab565b602082019050919050565b60006020820190508181036000830152611310816112d4565b9050919050565b7f4e487b7100000000000000000000000000000000000000000000000000000000600052601160045260246000fd5b600061135182610ddd565b915061135c83610ddd565b925082820190508082111561137457611373611317565b5b9291505056fea2646970667358221220d8abdcc5296f250279451d322622067fe8a685008e92d1edcb60a157c94e30cd64736f6c634300081c0033",
    "linkReferences": {},
    "deployedLinkReferences": {}
}