{
  "_format": "hh-sol-artifact-1",
  "contractName": "Lottery",
  "sourceName": "contracts/Lottery.sol",
  "abi": [
    {
      "inputs": [
        {
          "internalType": "uint256",
          "name": "_ticketSupply",
          "type": "uint256"
        },
        {
          "internalType": "uint256",
          "name": "_lotteryId",
          "type": "uint256"
        },
        {
          "internalType": "uint256",
          "name": "_ticketPrice",
          "type": "uint256"
        },
        {
          "internalType": "address",
          "name": "factoryOwner",
          "type": "address"
        }
      ],
      "stateMutability": "nonpayable",
      "type": "constructor"
    },
    {
      "anonymous": false,
      "inputs": [
        {
          "indexed": true,
          "internalType": "uint256",
          "name": "_lotteryId",
          "type": "uint256"
        }
      ],
      "name": "AllocationExhausted",
      "type": "event"
    },
    {
      "anonymous": false,
      "inputs": [
        {
          "indexed": true,
          "internalType": "address",
          "name": "recipientOfLotteryFunds",
          "type": "address"
        }
      ],
      "name": "FundsDistributed",
      "type": "event"
    },
    {
      "anonymous": false,
      "inputs": [
        {
          "indexed": false,
          "internalType": "uint256",
          "name": "amount",
          "type": "uint256"
        },
        {
          "indexed": true,
          "internalType": "address",
          "name": "buyer",
          "type": "address"
        }
      ],
      "name": "TicketSale",
      "type": "event"
    },
    {
      "anonymous": false,
      "inputs": [
        {
          "indexed": true,
          "internalType": "address",
          "name": "winnerAddress",
          "type": "address"
        },
        {
          "indexed": false,
          "internalType": "uint256",
          "name": "ticketNumber",
          "type": "uint256"
        }
      ],
      "name": "WinnerDrawn",
      "type": "event"
    },
    {
      "inputs": [],
      "name": "allTicketsSold",
      "outputs": [
        {
          "internalType": "bool",
          "name": "",
          "type": "bool"
        }
      ],
      "stateMutability": "view",
      "type": "function"
    },
    {
      "inputs": [
        {
          "internalType": "address",
          "name": "winnerAddr",
          "type": "address"
        }
      ],
      "name": "allocateFunds",
      "outputs": [],
      "stateMutability": "payable",
      "type": "function"
    },
    {
      "inputs": [
        {
          "internalType": "address",
          "name": "",
          "type": "address"
        }
      ],
      "name": "amountTicketsHeld",
      "outputs": [
        {
          "internalType": "uint256",
          "name": "",
          "type": "uint256"
        }
      ],
      "stateMutability": "view",
      "type": "function"
    },
    {
      "inputs": [
        {
          "internalType": "uint256",
          "name": "amount",
          "type": "uint256"
        }
      ],
      "name": "buyTicket",
      "outputs": [],
      "stateMutability": "payable",
      "type": "function"
    },
    {
      "inputs": [
        {
          "internalType": "address",
          "name": "winnerAddr",
          "type": "address"
        },
        {
          "internalType": "uint256",
          "name": "ticketNum",
          "type": "uint256"
        }
      ],
      "name": "callWinner",
      "outputs": [],
      "stateMutability": "nonpayable",
      "type": "function"
    },
    {
      "inputs": [
        {
          "internalType": "address",
          "name": "searchAddr",
          "type": "address"
        }
      ],
      "name": "getAddressTicketAmount",
      "outputs": [
        {
          "internalType": "uint256",
          "name": "",
          "type": "uint256"
        }
      ],
      "stateMutability": "view",
      "type": "function"
    },
    {
      "inputs": [],
      "name": "getAllTicketHolders",
      "outputs": [
        {
          "internalType": "address[]",
          "name": "",
          "type": "address[]"
        }
      ],
      "stateMutability": "view",
      "type": "function"
    },
    {
      "inputs": [],
      "name": "getContractETHBalance",
      "outputs": [
        {
          "internalType": "uint256",
          "name": "",
          "type": "uint256"
        }
      ],
      "stateMutability": "view",
      "type": "function"
    },
    {
      "inputs": [],
      "name": "getContractTokenBalance",
      "outputs": [
        {
          "internalType": "uint256",
          "name": "",
          "type": "uint256"
        }
      ],
      "stateMutability": "view",
      "type": "function"
    },
    {
      "inputs": [
        {
          "internalType": "address",
          "name": "searchAddr",
          "type": "address"
        }
      ],
      "name": "getERC20Balance",
      "outputs": [
        {
          "internalType": "uint256",
          "name": "",
          "type": "uint256"
        }
      ],
      "stateMutability": "view",
      "type": "function"
    },
    {
      "inputs": [],
      "name": "getLotteryId",
      "outputs": [
        {
          "internalType": "uint256",
          "name": "",
          "type": "uint256"
        }
      ],
      "stateMutability": "view",
      "type": "function"
    },
    {
      "inputs": [],
      "name": "getOwnerAddress",
      "outputs": [
        {
          "internalType": "address",
          "name": "",
          "type": "address"
        }
      ],
      "stateMutability": "view",
      "type": "function"
    },
    {
      "inputs": [],
      "name": "getRemainingTickets",
      "outputs": [
        {
          "internalType": "uint256",
          "name": "",
          "type": "uint256"
        }
      ],
      "stateMutability": "view",
      "type": "function"
    },
    {
      "inputs": [],
      "name": "getTicketPrice",
      "outputs": [
        {
          "internalType": "uint256",
          "name": "",
          "type": "uint256"
        }
      ],
      "stateMutability": "view",
      "type": "function"
    },
    {
      "inputs": [],
      "name": "getTicketSupply",
      "outputs": [
        {
          "internalType": "uint256",
          "name": "",
          "type": "uint256"
        }
      ],
      "stateMutability": "view",
      "type": "function"
    },
    {
      "inputs": [],
      "name": "getTokensAddress",
      "outputs": [
        {
          "internalType": "address",
          "name": "",
          "type": "address"
        }
      ],
      "stateMutability": "view",
      "type": "function"
    },
    {
      "inputs": [
        {
          "internalType": "address",
          "name": "searchAddr",
          "type": "address"
        }
      ],
      "name": "isTicketHolder",
      "outputs": [
        {
          "internalType": "bool",
          "name": "",
          "type": "bool"
        }
      ],
      "stateMutability": "view",
      "type": "function"
    },
    {
      "inputs": [],
      "name": "lotteryFactory",
      "outputs": [
        {
          "internalType": "contract LotteryFactory",
          "name": "",
          "type": "address"
        }
      ],
      "stateMutability": "view",
      "type": "function"
    },
    {
      "inputs": [],
      "name": "lotteryId",
      "outputs": [
        {
          "internalType": "uint256",
          "name": "",
          "type": "uint256"
        }
      ],
      "stateMutability": "view",
      "type": "function"
    },
    {
      "inputs": [],
      "name": "owner",
      "outputs": [
        {
          "internalType": "address",
          "name": "",
          "type": "address"
        }
      ],
      "stateMutability": "view",
      "type": "function"
    },
    {
      "inputs": [
        {
          "internalType": "uint256",
          "name": "randomTicketNumber",
          "type": "uint256"
        }
      ],
      "name": "pickWinner",
      "outputs": [
        {
          "internalType": "address",
          "name": "",
          "type": "address"
        },
        {
          "internalType": "uint256",
          "name": "",
          "type": "uint256"
        }
      ],
      "stateMutability": "view",
      "type": "function"
    },
    {
      "inputs": [
        {
          "internalType": "uint256",
          "name": "ticketNumber",
          "type": "uint256"
        }
      ],
      "name": "returnTicketOwner",
      "outputs": [
        {
          "internalType": "address",
          "name": "",
          "type": "address"
        }
      ],
      "stateMutability": "view",
      "type": "function"
    },
    {
      "inputs": [
        {
          "internalType": "uint256",
          "name": "",
          "type": "uint256"
        }
      ],
      "name": "ticketHolders",
      "outputs": [
        {
          "internalType": "address",
          "name": "",
          "type": "address"
        }
      ],
      "stateMutability": "view",
      "type": "function"
    },
    {
      "inputs": [],
      "name": "ticketPrice",
      "outputs": [
        {
          "internalType": "uint256",
          "name": "",
          "type": "uint256"
        }
      ],
      "stateMutability": "view",
      "type": "function"
    },
    {
      "inputs": [],
      "name": "ticketSupply",
      "outputs": [
        {
          "internalType": "uint256",
          "name": "",
          "type": "uint256"
        }
      ],
      "stateMutability": "view",
      "type": "function"
    },
    {
      "inputs": [],
      "name": "tickets",
      "outputs": [
        {
          "internalType": "contract LotteryTicket",
          "name": "",
          "type": "address"
        }
      ],
      "stateMutability": "view",
      "type": "function"
    },
    {
      "inputs": [],
      "name": "ticketsSold",
      "outputs": [
        {
          "internalType": "uint256",
          "name": "",
          "type": "uint256"
        }
      ],
      "stateMutability": "view",
      "type": "function"
    },
    {
      "inputs": [],
      "name": "tokensAddress",
      "outputs": [
        {
          "internalType": "address",
          "name": "",
          "type": "address"
        }
      ],
      "stateMutability": "view",
      "type": "function"
    },
    {
      "inputs": [],
      "name": "winnerChosen",
      "outputs": [
        {
          "internalType": "bool",
          "name": "",
          "type": "bool"
        }
      ],
      "stateMutability": "view",
      "type": "function"
    },
    {
      "stateMutability": "payable",
      "type": "receive"
    }
  ],
  "bytecode": "0x60a060405234801561001057600080fd5b506040516142573803806142578339818101604052810190610032919061028b565b60008411610075576040517f08c379a000000000000000000000000000000000000000000000000000000000815260040161006c90610375565b60405180910390fd5b826000819055508073ffffffffffffffffffffffffffffffffffffffff1660808173ffffffffffffffffffffffffffffffffffffffff1681525050836004819055508160088190555083306000546040516100cf906101e5565b6100db939291906103b3565b604051809103906000f0801580156100f7573d6000803e3d6000fd5b50600660006101000a81548173ffffffffffffffffffffffffffffffffffffffff021916908373ffffffffffffffffffffffffffffffffffffffff16021790555033600760006101000a81548173ffffffffffffffffffffffffffffffffffffffff021916908373ffffffffffffffffffffffffffffffffffffffff160217905550600660009054906101000a900473ffffffffffffffffffffffffffffffffffffffff16600260006101000a81548173ffffffffffffffffffffffffffffffffffffffff021916908373ffffffffffffffffffffffffffffffffffffffff160217905550505050506103ea565b611ca7806125b083390190565b600080fd5b6000819050919050565b61020a816101f7565b811461021557600080fd5b50565b60008151905061022781610201565b92915050565b600073ffffffffffffffffffffffffffffffffffffffff82169050919050565b60006102588261022d565b9050919050565b6102688161024d565b811461027357600080fd5b50565b6000815190506102858161025f565b92915050565b600080600080608085870312156102a5576102a46101f2565b5b60006102b387828801610218565b94505060206102c487828801610218565b93505060406102d587828801610218565b92505060606102e687828801610276565b91505092959194509250565b600082825260208201905092915050565b7f5469636b657420737570706c79206d757374206265206772656174657220746860008201527f616e207a65726f00000000000000000000000000000000000000000000000000602082015250565b600061035f6027836102f2565b915061036a82610303565b604082019050919050565b6000602082019050818103600083015261038e81610352565b9050919050565b61039e816101f7565b82525050565b6103ad8161024d565b82525050565b60006060820190506103c86000830186610395565b6103d560208301856103a4565b6103e26040830184610395565b949350505050565b6080516121886104286000396000818161073a01528181610d5c01528181610e5f0152818161117a01528181611317015261147401526121886000f3fe6080604052600436106101c65760003560e01c806381ecbea1116100f75780639c067c3211610095578063bdc15df611610064578063bdc15df614610660578063de8f8e6a1461067c578063e580f47b146106a7578063f737d21d146106d2576101cd565b80639c067c3214610580578063b437ae83146105bd578063b588d225146105e6578063bc60821614610623576101cd565b80638da5cb5b116100d15780638da5cb5b146104c25780638e36f586146104ed5780638f15024f1461052a578063900aafaf14610555576101cd565b806381ecbea11461044157806387bb7ae01461046c5780638c89a0ad14610497576101cd565b80633d873872116101645780635d83c2b81161013e5780635d83c2b81461039257806367dd74ca146103bd5780636b6d71ea146103d957806370cc89ad14610416576101cd565b80633d873872146102ff578063508120131461033c5780635b36672214610367576101cd565b806321858521116101a0578063218585211461025357806324c9036d1461027e578063317d9453146102a957806336298ff7146102d4576101cd565b80630986e733146101d25780630c4f65bd146101fd5780631209b1f614610228576101cd565b366101cd57005b600080fd5b3480156101de57600080fd5b506101e7610710565b6040516101f4919061167c565b60405180910390f35b34801561020957600080fd5b50610212610736565b60405161021f919061167c565b60405180910390f35b34801561023457600080fd5b5061023d61075e565b60405161024a91906116b0565b60405180910390f35b34801561025f57600080fd5b50610268610764565b604051610275919061172a565b60405180910390f35b34801561028a57600080fd5b5061029361078a565b6040516102a09190611766565b60405180910390f35b3480156102b557600080fd5b506102be6107b0565b6040516102cb91906116b0565b60405180910390f35b3480156102e057600080fd5b506102e9610853565b6040516102f6919061167c565b60405180910390f35b34801561030b57600080fd5b50610326600480360381019061032191906117b2565b61087d565b60405161033391906116b0565b60405180910390f35b34801561034857600080fd5b50610351610895565b60405161035e919061189d565b60405180910390f35b34801561037357600080fd5b5061037c610923565b60405161038991906118da565b60405180910390f35b34801561039e57600080fd5b506103a7610931565b6040516103b491906116b0565b60405180910390f35b6103d760048036038101906103d29190611921565b610937565b005b3480156103e557600080fd5b5061040060048036038101906103fb91906117b2565b610c83565b60405161040d91906118da565b60405180910390f35b34801561042257600080fd5b5061042b610d27565b60405161043891906116b0565b60405180910390f35b34801561044d57600080fd5b50610456610d3e565b60405161046391906116b0565b60405180910390f35b34801561047857600080fd5b50610481610d48565b60405161048e91906116b0565b60405180910390f35b3480156104a357600080fd5b506104ac610d52565b6040516104b991906116b0565b60405180910390f35b3480156104ce57600080fd5b506104d7610d5a565b6040516104e4919061167c565b60405180910390f35b3480156104f957600080fd5b50610514600480360381019061050f91906117b2565b610d7e565b60405161052191906116b0565b60405180910390f35b34801561053657600080fd5b5061053f610e0f565b60405161054c91906116b0565b60405180910390f35b34801561056157600080fd5b5061056a610e15565b60405161057791906116b0565b60405180910390f35b34801561058c57600080fd5b506105a760048036038101906105a29190611921565b610e1e565b6040516105b4919061167c565b60405180910390f35b3480156105c957600080fd5b506105e460048036038101906105df919061194e565b610e5d565b005b3480156105f257600080fd5b5061060d600480360381019061060891906117b2565b61102e565b60405161061a91906116b0565b60405180910390f35b34801561062f57600080fd5b5061064a60048036038101906106459190611921565b6110d3565b604051610657919061167c565b60405180910390f35b61067a600480360381019061067591906117b2565b611178565b005b34801561068857600080fd5b50610691611456565b60405161069e91906118da565b60405180910390f35b3480156106b357600080fd5b506106bc611469565b6040516106c991906116b0565b60405180910390f35b3480156106de57600080fd5b506106f960048036038101906106f49190611921565b61146f565b60405161070792919061198e565b60405180910390f35b600260009054906101000a900473ffffffffffffffffffffffffffffffffffffffff1681565b60007f0000000000000000000000000000000000000000000000000000000000000000905090565b60085481565b600660009054906101000a900473ffffffffffffffffffffffffffffffffffffffff1681565b600760009054906101000a900473ffffffffffffffffffffffffffffffffffffffff1681565b6000600660009054906101000a900473ffffffffffffffffffffffffffffffffffffffff1673ffffffffffffffffffffffffffffffffffffffff166370a08231306040518263ffffffff1660e01b815260040161080d919061167c565b602060405180830381865afa15801561082a573d6000803e3d6000fd5b505050506040513d601f19601f8201168201806040525081019061084e91906119cc565b905090565b6000600260009054906101000a900473ffffffffffffffffffffffffffffffffffffffff16905090565b60036020528060005260406000206000915090505481565b6060600180548060200260200160405190810160405280929190818152602001828054801561091957602002820191906000526020600020905b8160009054906101000a900473ffffffffffffffffffffffffffffffffffffffff1673ffffffffffffffffffffffffffffffffffffffff16815260200190600101908083116108cf575b5050505050905090565b600060045460055414905090565b60045481565b6004546005541061097d576040517f08c379a000000000000000000000000000000000000000000000000000000000815260040161097490611a56565b60405180910390fd5b60055460045461098d9190611aa5565b8111156109cf576040517f08c379a00000000000000000000000000000000000000000000000000000000081526004016109c690611b4b565b60405180910390fd5b806008546109dd9190611b6b565b3414610a1e576040517f08c379a0000000000000000000000000000000000000000000000000000000008152600401610a1590611bf9565b60405180910390fd5b60085434610a2c9190611c48565b8114610a6d576040517f08c379a0000000000000000000000000000000000000000000000000000000008152600401610a6490611cc5565b60405180910390fd5b8060056000828254610a7f9190611ce5565b9250508190555080600360003373ffffffffffffffffffffffffffffffffffffffff1673ffffffffffffffffffffffffffffffffffffffff1681526020019081526020016000206000828254610ad59190611ce5565b9250508190555060001515610ae933610c83565b151503610b54576001339080600181540180825580915050600190039060005260206000200160009091909190916101000a81548173ffffffffffffffffffffffffffffffffffffffff021916908373ffffffffffffffffffffffffffffffffffffffff1602179055505b600660009054906101000a900473ffffffffffffffffffffffffffffffffffffffff1673ffffffffffffffffffffffffffffffffffffffff1663a9059cbb33836040518363ffffffff1660e01b8152600401610bb192919061198e565b6020604051808303816000875af1158015610bd0573d6000803e3d6000fd5b505050506040513d601f19601f82011682018060405250810190610bf49190611d45565b503373ffffffffffffffffffffffffffffffffffffffff167ff77a8cbe2a16f740e6c57f4eb87d71011b039080451dab22c7c51c75f03fa10b82604051610c3b91906116b0565b60405180910390a2610c4b610923565b15610c80576000547f42ea1635f50563950ea929538dd659cb55df39e05d8eea6288a68f2e9cd9f5f460405160405180910390a25b50565b6000806000905060005b600180549050811015610d1d5760018181548110610cae57610cad611d72565b5b9060005260206000200160009054906101000a900473ffffffffffffffffffffffffffffffffffffffff1673ffffffffffffffffffffffffffffffffffffffff168473ffffffffffffffffffffffffffffffffffffffff1603610d1057600191505b8080600101915050610c8d565b5080915050919050565b6000600554600454610d399190611aa5565b905090565b6000600454905090565b6000600854905090565b600047905090565b7f000000000000000000000000000000000000000000000000000000000000000081565b6000610d8982610c83565b610dc8576040517f08c379a0000000000000000000000000000000000000000000000000000000008152600401610dbf90611ded565b60405180910390fd5b600360008373ffffffffffffffffffffffffffffffffffffffff1673ffffffffffffffffffffffffffffffffffffffff168152602001908152602001600020549050919050565b60055481565b60008054905090565b60018181548110610e2e57600080fd5b906000526020600020016000915054906101000a900473ffffffffffffffffffffffffffffffffffffffff1681565b7f000000000000000000000000000000000000000000000000000000000000000073ffffffffffffffffffffffffffffffffffffffff163373ffffffffffffffffffffffffffffffffffffffff1614610eeb576040517f08c379a0000000000000000000000000000000000000000000000000000000008152600401610ee290611e7f565b60405180910390fd5b610ef3610923565b610f32576040517f08c379a0000000000000000000000000000000000000000000000000000000008152600401610f2990611f11565b60405180910390fd5b6001600960006101000a81548160ff0219169083151502179055508173ffffffffffffffffffffffffffffffffffffffff167fc7a4ac1b113d8834e9a4b3a5968fadc610a4822ede2b7418dca2aa5f20f918de82604051610f9391906116b0565b60405180910390a2600760009054906101000a900473ffffffffffffffffffffffffffffffffffffffff1673ffffffffffffffffffffffffffffffffffffffff16633f5871b96000546040518263ffffffff1660e01b8152600401610ff891906116b0565b600060405180830381600087803b15801561101257600080fd5b505af1158015611026573d6000803e3d6000fd5b505050505050565b6000600660009054906101000a900473ffffffffffffffffffffffffffffffffffffffff1673ffffffffffffffffffffffffffffffffffffffff166370a08231836040518263ffffffff1660e01b815260040161108b919061167c565b602060405180830381865afa1580156110a8573d6000803e3d6000fd5b505050506040513d601f19601f820116820180604052508101906110cc91906119cc565b9050919050565b6000600660009054906101000a900473ffffffffffffffffffffffffffffffffffffffff1673ffffffffffffffffffffffffffffffffffffffff1663bc608216836040518263ffffffff1660e01b815260040161113091906116b0565b602060405180830381865afa15801561114d573d6000803e3d6000fd5b505050506040513d601f19601f820116820180604052508101906111719190611f46565b9050919050565b7f000000000000000000000000000000000000000000000000000000000000000073ffffffffffffffffffffffffffffffffffffffff163373ffffffffffffffffffffffffffffffffffffffff1614611206576040517f08c379a00000000000000000000000000000000000000000000000000000000081526004016111fd90611e7f565b60405180910390fd5b61120e610923565b61124d576040517f08c379a000000000000000000000000000000000000000000000000000000000815260040161124490611f11565b60405180910390fd5b600960009054906101000a900460ff1661129c576040517f08c379a000000000000000000000000000000000000000000000000000000000815260040161129390611fe5565b60405180910390fd5b600047905060006064605f836112b29190611b6b565b6112bc9190611c48565b9050600081836112cc9190611aa5565b90508373ffffffffffffffffffffffffffffffffffffffff166108fc839081150290604051600060405180830381858888f19350505050158015611314573d6000803e3d6000fd5b507f000000000000000000000000000000000000000000000000000000000000000073ffffffffffffffffffffffffffffffffffffffff166108fc829081150290604051600060405180830381858888f1935050505015801561137b573d6000803e3d6000fd5b508373ffffffffffffffffffffffffffffffffffffffff167f50c2f8461026be8b2682f55d1503f94c8f2980c1ad5a635a7c4fadb42f733ca260405160405180910390a2600760009054906101000a900473ffffffffffffffffffffffffffffffffffffffff1673ffffffffffffffffffffffffffffffffffffffff16639c623683600054866040518363ffffffff1660e01b815260040161141e929190612005565b600060405180830381600087803b15801561143857600080fd5b505af115801561144c573d6000803e3d6000fd5b5050505050505050565b600960009054906101000a900460ff1681565b60005481565b6000807f000000000000000000000000000000000000000000000000000000000000000073ffffffffffffffffffffffffffffffffffffffff163373ffffffffffffffffffffffffffffffffffffffff1614611500576040517f08c379a00000000000000000000000000000000000000000000000000000000081526004016114f790611e7f565b60405180910390fd5b611508610923565b611547576040517f08c379a000000000000000000000000000000000000000000000000000000000815260040161153e906120a0565b60405180910390fd5b6000600660009054906101000a900473ffffffffffffffffffffffffffffffffffffffff1673ffffffffffffffffffffffffffffffffffffffff1663bc608216856040518263ffffffff1660e01b81526004016115a491906116b0565b602060405180830381865afa1580156115c1573d6000803e3d6000fd5b505050506040513d601f19601f820116820180604052508101906115e59190611f46565b90506115f081610c83565b61162f576040517f08c379a000000000000000000000000000000000000000000000000000000000815260040161162690612132565b60405180910390fd5b80849250925050915091565b600073ffffffffffffffffffffffffffffffffffffffff82169050919050565b60006116668261163b565b9050919050565b6116768161165b565b82525050565b6000602082019050611691600083018461166d565b92915050565b6000819050919050565b6116aa81611697565b82525050565b60006020820190506116c560008301846116a1565b92915050565b6000819050919050565b60006116f06116eb6116e68461163b565b6116cb565b61163b565b9050919050565b6000611702826116d5565b9050919050565b6000611714826116f7565b9050919050565b61172481611709565b82525050565b600060208201905061173f600083018461171b565b92915050565b6000611750826116f7565b9050919050565b61176081611745565b82525050565b600060208201905061177b6000830184611757565b92915050565b600080fd5b61178f8161165b565b811461179a57600080fd5b50565b6000813590506117ac81611786565b92915050565b6000602082840312156117c8576117c7611781565b5b60006117d68482850161179d565b91505092915050565b600081519050919050565b600082825260208201905092915050565b6000819050602082019050919050565b6118148161165b565b82525050565b6000611826838361180b565b60208301905092915050565b6000602082019050919050565b600061184a826117df565b61185481856117ea565b935061185f836117fb565b8060005b83811015611890578151611877888261181a565b975061188283611832565b925050600181019050611863565b5085935050505092915050565b600060208201905081810360008301526118b7818461183f565b905092915050565b60008115159050919050565b6118d4816118bf565b82525050565b60006020820190506118ef60008301846118cb565b92915050565b6118fe81611697565b811461190957600080fd5b50565b60008135905061191b816118f5565b92915050565b60006020828403121561193757611936611781565b5b60006119458482850161190c565b91505092915050565b6000806040838503121561196557611964611781565b5b60006119738582860161179d565b92505060206119848582860161190c565b9150509250929050565b60006040820190506119a3600083018561166d565b6119b060208301846116a1565b9392505050565b6000815190506119c6816118f5565b92915050565b6000602082840312156119e2576119e1611781565b5b60006119f0848285016119b7565b91505092915050565b600082825260208201905092915050565b7f4e6f207469636b6574732072656d61696e696e67000000000000000000000000600082015250565b6000611a406014836119f9565b9150611a4b82611a0a565b602082019050919050565b60006020820190508181036000830152611a6f81611a33565b9050919050565b7f4e487b7100000000000000000000000000000000000000000000000000000000600052601160045260246000fd5b6000611ab082611697565b9150611abb83611697565b9250828203905081811115611ad357611ad2611a76565b5b92915050565b7f4e6f7420656e6f756768207469636b65747320746f2066756c66696c6c20707560008201527f7263686173650000000000000000000000000000000000000000000000000000602082015250565b6000611b356026836119f9565b9150611b4082611ad9565b604082019050919050565b60006020820190508181036000830152611b6481611b28565b9050919050565b6000611b7682611697565b9150611b8183611697565b9250828202611b8f81611697565b91508282048414831517611ba657611ba5611a76565b5b5092915050565b7f496e636f7272656374207061796d656e7420616d6f756e740000000000000000600082015250565b6000611be36018836119f9565b9150611bee82611bad565b602082019050919050565b60006020820190508181036000830152611c1281611bd6565b9050919050565b7f4e487b7100000000000000000000000000000000000000000000000000000000600052601260045260246000fd5b6000611c5382611697565b9150611c5e83611697565b925082611c6e57611c6d611c19565b5b828204905092915050565b7f4d7573742070757263686173652077686f6c65207469636b6574730000000000600082015250565b6000611caf601b836119f9565b9150611cba82611c79565b602082019050919050565b60006020820190508181036000830152611cde81611ca2565b9050919050565b6000611cf082611697565b9150611cfb83611697565b9250828201905080821115611d1357611d12611a76565b5b92915050565b611d22816118bf565b8114611d2d57600080fd5b50565b600081519050611d3f81611d19565b92915050565b600060208284031215611d5b57611d5a611781565b5b6000611d6984828501611d30565b91505092915050565b7f4e487b7100000000000000000000000000000000000000000000000000000000600052603260045260246000fd5b7f4164647265737320686173206e6f7420707572636861736564207469636b6574600082015250565b6000611dd76020836119f9565b9150611de282611da1565b602082019050919050565b60006020820190508181036000830152611e0681611dca565b9050919050565b7f4f6e6c7920636f6e7472616374206f776e6572206d61792063616c6c2074686960008201527f732066756e6374696f6e00000000000000000000000000000000000000000000602082015250565b6000611e69602a836119f9565b9150611e7482611e0d565b604082019050919050565b60006020820190508181036000830152611e9881611e5c565b9050919050565b7f43616e6e6f742063616c6c207768696c65207469636b657473206f757473746160008201527f6e64696e67000000000000000000000000000000000000000000000000000000602082015250565b6000611efb6025836119f9565b9150611f0682611e9f565b604082019050919050565b60006020820190508181036000830152611f2a81611eee565b9050919050565b600081519050611f4081611786565b92915050565b600060208284031215611f5c57611f5b611781565b5b6000611f6a84828501611f31565b91505092915050565b7f43616e6e6f7420616c6c6f63617465206265666f72652077696e6e657220697360008201527f207069636b656400000000000000000000000000000000000000000000000000602082015250565b6000611fcf6027836119f9565b9150611fda82611f73565b604082019050919050565b60006020820190508181036000830152611ffe81611fc2565b9050919050565b600060408201905061201a60008301856116a1565b612027602083018461166d565b9392505050565b7f43616e6e6f742063616c6c2c207469636b657473207374696c6c2072656d616960008201527f6e696e6700000000000000000000000000000000000000000000000000000000602082015250565b600061208a6024836119f9565b91506120958261202e565b604082019050919050565b600060208201905081810360008301526120b98161207d565b9050919050565b7f57696e6e65722061646472657373206d757374206265207469636b657420686f60008201527f6c64657200000000000000000000000000000000000000000000000000000000602082015250565b600061211c6024836119f9565b9150612127826120c0565b604082019050919050565b6000602082019050818103600083015261214b8161210f565b905091905056fea2646970667358221220c617141389f335452b1fecd0aa2b01801172e9a235b2bd0c2ac9d48ffd0e96c464736f6c634300081c0033608060405234801561001057600080fd5b50604051611ca7380380611ca78339818101604052810190610032919061048f565b6040518060400160405280600d81526020017f4c6f74746572795469636b6574000000000000000000000000000000000000008152506040518060400160405280600281526020017f4c5400000000000000000000000000000000000000000000000000000000000081525081600390816100ad9190610728565b5080600490816100bd9190610728565b5050508060058190555081600660006101000a81548173ffffffffffffffffffffffffffffffffffffffff021916908373ffffffffffffffffffffffffffffffffffffffff16021790555082600981905550610141600660009054906101000a900473ffffffffffffffffffffffffffffffffffffffff168461014960201b60201c565b5050506108e8565b600073ffffffffffffffffffffffffffffffffffffffff168273ffffffffffffffffffffffffffffffffffffffff16036101bb5760006040517fec442f050000000000000000000000000000000000000000000000000000000081526004016101b29190610809565b60405180910390fd5b6101cd600083836101d160201b60201c565b5050565b600073ffffffffffffffffffffffffffffffffffffffff168373ffffffffffffffffffffffffffffffffffffffff16036102235780600260008282546102179190610853565b925050819055506102f6565b60008060008573ffffffffffffffffffffffffffffffffffffffff1673ffffffffffffffffffffffffffffffffffffffff168152602001908152602001600020549050818110156102af578381836040517fe450d38c0000000000000000000000000000000000000000000000000000000081526004016102a693929190610896565b60405180910390fd5b8181036000808673ffffffffffffffffffffffffffffffffffffffff1673ffffffffffffffffffffffffffffffffffffffff16815260200190815260200160002081905550505b600073ffffffffffffffffffffffffffffffffffffffff168273ffffffffffffffffffffffffffffffffffffffff160361033f578060026000828254039250508190555061038c565b806000808473ffffffffffffffffffffffffffffffffffffffff1673ffffffffffffffffffffffffffffffffffffffff168152602001908152602001600020600082825401925050819055505b8173ffffffffffffffffffffffffffffffffffffffff168373ffffffffffffffffffffffffffffffffffffffff167fddf252ad1be2c89b69c2b068fc378daa952ba7f163c4a11628f55a4df523b3ef836040516103e991906108cd565b60405180910390a3505050565b600080fd5b6000819050919050565b61040e816103fb565b811461041957600080fd5b50565b60008151905061042b81610405565b92915050565b600073ffffffffffffffffffffffffffffffffffffffff82169050919050565b600061045c82610431565b9050919050565b61046c81610451565b811461047757600080fd5b50565b60008151905061048981610463565b92915050565b6000806000606084860312156104a8576104a76103f6565b5b60006104b68682870161041c565b93505060206104c78682870161047a565b92505060406104d88682870161041c565b9150509250925092565b600081519050919050565b7f4e487b7100000000000000000000000000000000000000000000000000000000600052604160045260246000fd5b7f4e487b7100000000000000000000000000000000000000000000000000000000600052602260045260246000fd5b6000600282049050600182168061056357607f821691505b6020821081036105765761057561051c565b5b50919050565b60008190508160005260206000209050919050565b60006020601f8301049050919050565b600082821b905092915050565b6000600883026105de7fffffffffffffffffffffffffffffffffffffffffffffffffffffffffffffffff826105a1565b6105e886836105a1565b95508019841693508086168417925050509392505050565b6000819050919050565b600061062561062061061b846103fb565b610600565b6103fb565b9050919050565b6000819050919050565b61063f8361060a565b61065361064b8261062c565b8484546105ae565b825550505050565b600090565b61066861065b565b610673818484610636565b505050565b5b818110156106975761068c600082610660565b600181019050610679565b5050565b601f8211156106dc576106ad8161057c565b6106b684610591565b810160208510156106c5578190505b6106d96106d185610591565b830182610678565b50505b505050565b600082821c905092915050565b60006106ff600019846008026106e1565b1980831691505092915050565b600061071883836106ee565b9150826002028217905092915050565b610731826104e2565b67ffffffffffffffff81111561074a576107496104ed565b5b610754825461054b565b61075f82828561069b565b600060209050601f8311600181146107925760008415610780578287015190505b61078a858261070c565b8655506107f2565b601f1984166107a08661057c565b60005b828110156107c8578489015182556001820191506020850194506020810190506107a3565b868310156107e557848901516107e1601f8916826106ee565b8355505b6001600288020188555050505b505050505050565b61080381610451565b82525050565b600060208201905061081e60008301846107fa565b92915050565b7f4e487b7100000000000000000000000000000000000000000000000000000000600052601160045260246000fd5b600061085e826103fb565b9150610869836103fb565b925082820190508082111561088157610880610824565b5b92915050565b610890816103fb565b82525050565b60006060820190506108ab60008301866107fa565b6108b86020830185610887565b6108c56040830184610887565b949350505050565b60006020820190506108e26000830184610887565b92915050565b6113b0806108f76000396000f3fe608060405234801561001057600080fd5b50600436106100f55760003560e01c806360b9a6c211610097578063bc60821611610066578063bc6082161461028c578063dd62ed3e146102bc578063e580f47b146102ec578063eb2dbcf61461030a576100f5565b806360b9a6c2146101f057806370a082311461020e57806395d89b411461023e578063a9059cbb1461025c576100f5565b806318160ddd116100d357806318160ddd1461016657806323b872dd14610184578063313ce567146101b45780633beedf6d146101d2576100f5565b8063047fc9aa146100fa57806306fdde0314610118578063095ea7b314610136575b600080fd5b61010261033a565b60405161010f9190610df6565b60405180910390f35b610120610340565b60405161012d9190610ea1565b60405180910390f35b610150600480360381019061014b9190610f52565b6103d2565b60405161015d9190610fad565b60405180910390f35b61016e6103f5565b60405161017b9190610df6565b60405180910390f35b61019e60048036038101906101999190610fc8565b6103ff565b6040516101ab9190610fad565b60405180910390f35b6101bc61042e565b6040516101c99190611037565b60405180910390f35b6101da610437565b6040516101e79190611061565b60405180910390f35b6101f861045d565b6040516102059190610df6565b60405180910390f35b6102286004803603810190610223919061107c565b610463565b6040516102359190610df6565b60405180910390f35b6102466104ab565b6040516102539190610ea1565b60405180910390f35b61027660048036038101906102719190610f52565b61053d565b6040516102839190610fad565b60405180910390f35b6102a660048036038101906102a191906110a9565b6106b3565b6040516102b39190611061565b60405180910390f35b6102d660048036038101906102d191906110d6565b6106f0565b6040516102e39190610df6565b60405180910390f35b6102f4610777565b6040516103019190610df6565b60405180910390f35b610324600480360381019061031f91906110a9565b61077d565b6040516103319190611061565b60405180910390f35b60095481565b60606003805461034f90611145565b80601f016020809104026020016040519081016040528092919081815260200182805461037b90611145565b80156103c85780601f1061039d576101008083540402835291602001916103c8565b820191906000526020600020905b8154815290600101906020018083116103ab57829003601f168201915b5050505050905090565b6000806103dd6107b0565b90506103ea8185856107b8565b600191505092915050565b6000600254905090565b60008061040a6107b0565b90506104178582856107ca565b61042285858561085f565b60019150509392505050565b60006012905090565b600660009054906101000a900473ffffffffffffffffffffffffffffffffffffffff1681565b60085481565b60008060008373ffffffffffffffffffffffffffffffffffffffff1673ffffffffffffffffffffffffffffffffffffffff168152602001908152602001600020549050919050565b6060600480546104ba90611145565b80601f01602080910402602001604051908101604052809291908181526020018280546104e690611145565b80156105335780601f1061050857610100808354040283529160200191610533565b820191906000526020600020905b81548152906001019060200180831161051657829003601f168201915b5050505050905090565b6000600660009054906101000a900473ffffffffffffffffffffffffffffffffffffffff1673ffffffffffffffffffffffffffffffffffffffff163373ffffffffffffffffffffffffffffffffffffffff16146105cf576040517f08c379a00000000000000000000000000000000000000000000000000000000081526004016105c6906111e8565b60405180910390fd5b6000821180156105e757506105e333610463565b8211155b610626576040517f08c379a000000000000000000000000000000000000000000000000000000000815260040161061d90611254565b60405180910390fd5b6106308383610953565b5060005b828110156106a8576000610646610976565b9050846007600083815260200190815260200160002060006101000a81548173ffffffffffffffffffffffffffffffffffffffff021916908373ffffffffffffffffffffffffffffffffffffffff160217905550508080600101915050610634565b506001905092915050565b60006007600083815260200190815260200160002060009054906101000a900473ffffffffffffffffffffffffffffffffffffffff169050919050565b6000600160008473ffffffffffffffffffffffffffffffffffffffff1673ffffffffffffffffffffffffffffffffffffffff16815260200190815260200160002060008373ffffffffffffffffffffffffffffffffffffffff1673ffffffffffffffffffffffffffffffffffffffff16815260200190815260200160002054905092915050565b60055481565b60076020528060005260406000206000915054906101000a900473ffffffffffffffffffffffffffffffffffffffff1681565b600033905090565b6107c583838360016109e1565b505050565b60006107d684846106f0565b90507fffffffffffffffffffffffffffffffffffffffffffffffffffffffffffffffff8110156108595781811015610849578281836040517ffb8f41b200000000000000000000000000000000000000000000000000000000815260040161084093929190611274565b60405180910390fd5b610858848484840360006109e1565b5b50505050565b600073ffffffffffffffffffffffffffffffffffffffff168373ffffffffffffffffffffffffffffffffffffffff16036108d15760006040517f96c6fd1e0000000000000000000000000000000000000000000000000000000081526004016108c89190611061565b60405180910390fd5b600073ffffffffffffffffffffffffffffffffffffffff168273ffffffffffffffffffffffffffffffffffffffff16036109435760006040517fec442f0500000000000000000000000000000000000000000000000000000000815260040161093a9190611061565b60405180910390fd5b61094e838383610bb8565b505050565b60008061095e6107b0565b905061096b81858561085f565b600191505092915050565b600060095460085411156109bf576040517f08c379a00000000000000000000000000000000000000000000000000000000081526004016109b6906112f7565b60405180910390fd5b6001600860008282546109d29190611346565b92505081905550600854905090565b600073ffffffffffffffffffffffffffffffffffffffff168473ffffffffffffffffffffffffffffffffffffffff1603610a535760006040517fe602df05000000000000000000000000000000000000000000000000000000008152600401610a4a9190611061565b60405180910390fd5b600073ffffffffffffffffffffffffffffffffffffffff168373ffffffffffffffffffffffffffffffffffffffff1603610ac55760006040517f94280d62000000000000000000000000000000000000000000000000000000008152600401610abc9190611061565b60405180910390fd5b81600160008673ffffffffffffffffffffffffffffffffffffffff1673ffffffffffffffffffffffffffffffffffffffff16815260200190815260200160002060008573ffffffffffffffffffffffffffffffffffffffff1673ffffffffffffffffffffffffffffffffffffffff168152602001908152602001600020819055508015610bb2578273ffffffffffffffffffffffffffffffffffffffff168473ffffffffffffffffffffffffffffffffffffffff167f8c5be1e5ebec7d5bd14f71427d1e84f3dd0314c0f7b2291e5b200ac8c7c3b92584604051610ba99190610df6565b60405180910390a35b50505050565b600073ffffffffffffffffffffffffffffffffffffffff168373ffffffffffffffffffffffffffffffffffffffff1603610c0a578060026000828254610bfe9190611346565b92505081905550610cdd565b60008060008573ffffffffffffffffffffffffffffffffffffffff1673ffffffffffffffffffffffffffffffffffffffff16815260200190815260200160002054905081811015610c96578381836040517fe450d38c000000000000000000000000000000000000000000000000000000008152600401610c8d93929190611274565b60405180910390fd5b8181036000808673ffffffffffffffffffffffffffffffffffffffff1673ffffffffffffffffffffffffffffffffffffffff16815260200190815260200160002081905550505b600073ffffffffffffffffffffffffffffffffffffffff168273ffffffffffffffffffffffffffffffffffffffff1603610d265780600260008282540392505081905550610d73565b806000808473ffffffffffffffffffffffffffffffffffffffff1673ffffffffffffffffffffffffffffffffffffffff168152602001908152602001600020600082825401925050819055505b8173ffffffffffffffffffffffffffffffffffffffff168373ffffffffffffffffffffffffffffffffffffffff167fddf252ad1be2c89b69c2b068fc378daa952ba7f163c4a11628f55a4df523b3ef83604051610dd09190610df6565b60405180910390a3505050565b6000819050919050565b610df081610ddd565b82525050565b6000602082019050610e0b6000830184610de7565b92915050565b600081519050919050565b600082825260208201905092915050565b60005b83811015610e4b578082015181840152602081019050610e30565b60008484015250505050565b6000601f19601f8301169050919050565b6000610e7382610e11565b610e7d8185610e1c565b9350610e8d818560208601610e2d565b610e9681610e57565b840191505092915050565b60006020820190508181036000830152610ebb8184610e68565b905092915050565b600080fd5b600073ffffffffffffffffffffffffffffffffffffffff82169050919050565b6000610ef382610ec8565b9050919050565b610f0381610ee8565b8114610f0e57600080fd5b50565b600081359050610f2081610efa565b92915050565b610f2f81610ddd565b8114610f3a57600080fd5b50565b600081359050610f4c81610f26565b92915050565b60008060408385031215610f6957610f68610ec3565b5b6000610f7785828601610f11565b9250506020610f8885828601610f3d565b9150509250929050565b60008115159050919050565b610fa781610f92565b82525050565b6000602082019050610fc26000830184610f9e565b92915050565b600080600060608486031215610fe157610fe0610ec3565b5b6000610fef86828701610f11565b935050602061100086828701610f11565b925050604061101186828701610f3d565b9150509250925092565b600060ff82169050919050565b6110318161101b565b82525050565b600060208201905061104c6000830184611028565b92915050565b61105b81610ee8565b82525050565b60006020820190506110766000830184611052565b92915050565b60006020828403121561109257611091610ec3565b5b60006110a084828501610f11565b91505092915050565b6000602082840312156110bf576110be610ec3565b5b60006110cd84828501610f3d565b91505092915050565b600080604083850312156110ed576110ec610ec3565b5b60006110fb85828601610f11565b925050602061110c85828601610f11565b9150509250929050565b7f4e487b7100000000000000000000000000000000000000000000000000000000600052602260045260246000fd5b6000600282049050600182168061115d57607f821691505b6020821081036111705761116f611116565b5b50919050565b7f4f6e6c7920746865206173736f636961746564206c6f74746572792063616e2060008201527f63616c6c20746869732066756e6374696f6e0000000000000000000000000000602082015250565b60006111d2603283610e1c565b91506111dd82611176565b604082019050919050565b60006020820190508181036000830152611201816111c5565b9050919050565b7f496e76616c6964207472616e7366657220616d6f756e74000000000000000000600082015250565b600061123e601783610e1c565b915061124982611208565b602082019050919050565b6000602082019050818103600083015261126d81611231565b9050919050565b60006060820190506112896000830186611052565b6112966020830185610de7565b6112a36040830184610de7565b949350505050565b7f43616e6e6f742065786365656420737570706c79206f66207469636b65747300600082015250565b60006112e1601f83610e1c565b91506112ec826112ab565b602082019050919050565b60006020820190508181036000830152611310816112d4565b9050919050565b7f4e487b7100000000000000000000000000000000000000000000000000000000600052601160045260246000fd5b600061135182610ddd565b915061135c83610ddd565b925082820190508082111561137457611373611317565b5b9291505056fea2646970667358221220d8abdcc5296f250279451d322622067fe8a685008e92d1edcb60a157c94e30cd64736f6c634300081c0033",
  "linkReferences": {},
  "deployedLinkReferences": {}
}